{
    "contractName": "CopyInfoContract",
    "abi": [
        {
            "anonymous": false,
            "inputs": [
                {
                    "indexed": false,
                    "internalType": "string",
                    "name": "Artist",
                    "type": "string"
                },
                {
                    "indexed": false,
                    "internalType": "string",
                    "name": "Createdtime",
                    "type": "string"
                },
                {
                    "indexed": false,
                    "internalType": "string",
                    "name": "Type",
                    "type": "string"
                },
                {
                    "indexed": false,
                    "internalType": "string",
                    "name": "Description",
                    "type": "string"
                },
                {
                    "indexed": false,
                    "internalType": "uint256",
                    "name": "timestamp",
                    "type": "uint256"
                }
            ],
            "name": "Copyright",
            "type": "event"
        },
        {
            "inputs": [
                {
                    "internalType": "string",
                    "name": "_Artist",
                    "type": "string"
                },
                {
                    "internalType": "string",
                    "name": "_Createdtime",
                    "type": "string"
                },
                {
                    "internalType": "string",
                    "name": "_Type",
                    "type": "string"
                },
                {
                    "internalType": "string",
                    "name": "_Description",
                    "type": "string"
                },
                {
                    "internalType": "uint256",
                    "name": "timestamp",
                    "type": "uint256"
                }
            ],
            "name": "addCopyright",
            "outputs": [],
            "stateMutability": "nonpayable",
            "type": "function"
        },
        {
            "inputs": [
                {
                    "internalType": "uint256",
                    "name": "",
                    "type": "uint256"
                }
            ],
            "name": "copyright",
            "outputs": [
                {
                    "internalType": "string",
                    "name": "Artist",
                    "type": "string"
                },
                {
                    "internalType": "string",
                    "name": "Createdtime",
                    "type": "string"
                },
                {
                    "internalType": "string",
                    "name": "Type",
                    "type": "string"
                },
                {
                    "internalType": "string",
                    "name": "Description",
                    "type": "string"
                },
                {
                    "internalType": "uint256",
                    "name": "timestamp",
                    "type": "uint256"
                }
            ],
            "stateMutability": "view",
            "type": "function"
        },
        {
            "inputs": [
                {
                    "internalType": "uint256",
                    "name": "_idx",
                    "type": "uint256"
                }
            ],
            "name": "getCopyright",
            "outputs": [
                {
                    "internalType": "string",
                    "name": "",
                    "type": "string"
                },
                {
                    "internalType": "string",
                    "name": "",
                    "type": "string"
                },
                {
                    "internalType": "string",
                    "name": "",
                    "type": "string"
                },
                {
                    "internalType": "string",
                    "name": "",
                    "type": "string"
                }
            ],
            "stateMutability": "view",
            "type": "function"
        },
        {
            "inputs": [],
            "name": "initalized",
            "outputs": [],
            "stateMutability": "nonpayable",
            "type": "function"
        }
    ],
    "bytecode": "608060405234801561001057600080fd5b50610ae5806100206000396000f3fe608060405234801561001057600080fd5b506004361061004c5760003560e01c80631852ca4b146100515780635be1a091146100665780636f4eaff11461006f578063e9dc92f91461009b575b600080fd5b61006461005f36600461084c565b6100bf565b005b61006460008055565b61008261007d366004610901565b6101eb565b6040516100929493929190610967565b60405180910390f35b6100ae6100a9366004610901565b6104c0565b6040516100929594939291906109bf565b6040805160a0810182528681526020808201879052918101859052606081018490526080810183905260018054808201825560009190915281518051929360059092027fb10e2d527612073b26eecdfd717e6a320cf44b4afac2b0732d9fcbe2b7fa0cf601926101329284920190610726565b50602082810151805161014b9260018501920190610726565b5060408201518051610167916002840191602090910190610726565b5060608201518051610183916003840191602090910190610726565b50608091909101516004909101556000805490806101a083610a5a565b91905055507f0a073f8f9f61340d1552b3bfcd179ed59bad190195c10c44f5e5bd53a74c68ea85858585856040516101dc9594939291906109bf565b60405180910390a15050505050565b6060806060806001858154811061020457610204610a83565b90600052602060002090600502016000016001868154811061022857610228610a83565b90600052602060002090600502016001016001878154811061024c5761024c610a83565b90600052602060002090600502016002016001888154811061027057610270610a83565b906000526020600020906005020160030183805461028d90610a1f565b80601f01602080910402602001604051908101604052809291908181526020018280546102b990610a1f565b80156103065780601f106102db57610100808354040283529160200191610306565b820191906000526020600020905b8154815290600101906020018083116102e957829003601f168201915b5050505050935082805461031990610a1f565b80601f016020809104026020016040519081016040528092919081815260200182805461034590610a1f565b80156103925780601f1061036757610100808354040283529160200191610392565b820191906000526020600020905b81548152906001019060200180831161037557829003601f168201915b505050505092508180546103a590610a1f565b80601f01602080910402602001604051908101604052809291908181526020018280546103d190610a1f565b801561041e5780601f106103f35761010080835404028352916020019161041e565b820191906000526020600020905b81548152906001019060200180831161040157829003601f168201915b5050505050915080805461043190610a1f565b80601f016020809104026020016040519081016040528092919081815260200182805461045d90610a1f565b80156104aa5780601f1061047f576101008083540402835291602001916104aa565b820191906000526020600020905b81548152906001019060200180831161048d57829003601f168201915b5050505050905093509350935093509193509193565b600181815481106104d057600080fd5b90600052602060002090600502016000915090508060000180546104f390610a1f565b80601f016020809104026020016040519081016040528092919081815260200182805461051f90610a1f565b801561056c5780601f106105415761010080835404028352916020019161056c565b820191906000526020600020905b81548152906001019060200180831161054f57829003601f168201915b50505050509080600101805461058190610a1f565b80601f01602080910402602001604051908101604052809291908181526020018280546105ad90610a1f565b80156105fa5780601f106105cf576101008083540402835291602001916105fa565b820191906000526020600020905b8154815290600101906020018083116105dd57829003601f168201915b50505050509080600201805461060f90610a1f565b80601f016020809104026020016040519081016040528092919081815260200182805461063b90610a1f565b80156106885780601f1061065d57610100808354040283529160200191610688565b820191906000526020600020905b81548152906001019060200180831161066b57829003601f168201915b50505050509080600301805461069d90610a1f565b80601f01602080910402602001604051908101604052809291908181526020018280546106c990610a1f565b80156107165780601f106106eb57610100808354040283529160200191610716565b820191906000526020600020905b8154815290600101906020018083116106f957829003601f168201915b5050505050908060040154905085565b82805461073290610a1f565b90600052602060002090601f016020900481019282610754576000855561079a565b82601f1061076d57805160ff191683800117855561079a565b8280016001018555821561079a579182015b8281111561079a57825182559160200191906001019061077f565b506107a69291506107aa565b5090565b5b808211156107a657600081556001016107ab565b600082601f8301126107d057600080fd5b813567ffffffffffffffff808211156107eb576107eb610a99565b604051601f8301601f19908116603f0116810190828211818310171561081357610813610a99565b8160405283815286602085880101111561082c57600080fd5b836020870160208301376000602085830101528094505050505092915050565b600080600080600060a0868803121561086457600080fd5b853567ffffffffffffffff8082111561087c57600080fd5b61088889838a016107bf565b9650602088013591508082111561089e57600080fd5b6108aa89838a016107bf565b955060408801359150808211156108c057600080fd5b6108cc89838a016107bf565b945060608801359150808211156108e257600080fd5b506108ef888289016107bf565b95989497509295608001359392505050565b60006020828403121561091357600080fd5b5035919050565b6000815180845260005b8181101561094057602081850181015186830182015201610924565b81811115610952576000602083870101525b50601f01601f19169290920160200192915050565b60808152600061097a608083018761091a565b828103602084015261098c818761091a565b905082810360408401526109a0818661091a565b905082810360608401526109b4818561091a565b979650505050505050565b60a0815260006109d260a083018861091a565b82810360208401526109e4818861091a565b905082810360408401526109f8818761091a565b90508281036060840152610a0c818661091a565b9150508260808301529695505050505050565b600181811c90821680610a3357607f821691505b60208210811415610a5457634e487b7160e01b600052602260045260246000fd5b50919050565b6000600019821415610a7c57634e487b7160e01b600052601160045260246000fd5b5060010190565b634e487b7160e01b600052603260045260246000fd5b634e487b7160e01b600052604160045260246000fdfea26469706673582212206fcb2d36893b6694db70ca0da0eb8aad285c357bd2b985dd12cf1cc201a8686964736f6c63430008070033",
    "sourcePath": "/home/kwak/Downloads/final_year/smartcontract.sol",
    "compiler": {
        "name": "solc",
        "version": "0.8.7+commit.e28d00a7"
    },
    "functionHashes": {
        "addCopyright(string,string,string,string,uint256)": "1852ca4b",
        "copyright(uint256)": "e9dc92f9",
        "getCopyright(uint256)": "6f4eaff1",
        "initalized()": "5be1a091"
    },
    "gasEstimates": {
        "creation": {
            "codeDepositCost": "557800",
            "executionCost": "594",
            "totalCost": "558394"
        },
        "external": {
            "addCopyright(string,string,string,string,uint256)": "infinite",
            "copyright(uint256)": "infinite",
            "getCopyright(uint256)": "infinite",
            "initalized()": "5138"
        }
    }
}