{
    "contractName": "Owner",
    "abi": [
        {
            "inputs": [],
            "stateMutability": "nonpayable",
            "type": "constructor"
        },
        {
            "inputs": [],
            "name": "fileowner",
            "outputs": [
                {
                    "internalType": "address",
                    "name": "",
                    "type": "address"
                }
            ],
            "stateMutability": "view",
            "type": "function"
        },
        {
            "inputs": [],
            "name": "getOwner",
            "outputs": [
                {
                    "internalType": "address",
                    "name": "",
                    "type": "address"
                }
            ],
            "stateMutability": "view",
            "type": "function"
        },
        {
            "inputs": [
                {
                    "internalType": "address",
                    "name": "newOwner",
                    "type": "address"
                }
            ],
            "name": "transferOwnership",
            "outputs": [],
            "stateMutability": "nonpayable",
            "type": "function"
        }
    ],
    "bytecode": "608060405234801561001057600080fd5b50600080546001600160a01b03191633179055610129806100326000396000f3fe6080604052348015600f57600080fd5b5060043610603c5760003560e01c8063893d20e8146041578063bf15bb9714606a578063f2fde38b14607c575b600080fd5b6000546001600160a01b03165b6040516001600160a01b03909116815260200160405180910390f35b600054604e906001600160a01b031681565b608b608736600460c5565b608d565b005b6000546001600160a01b0316331460a357600080fd5b600080546001600160a01b0319166001600160a01b0392909216919091179055565b60006020828403121560d657600080fd5b81356001600160a01b038116811460ec57600080fd5b939250505056fea2646970667358221220b1223205afb76422fd10762b8bdfac6a0aa3c21f87080ad118f34f7b275f991464736f6c63430008070033",
    "sourcePath": "/home/kwak/Downloads/final_year/smartcontract.sol",
    "compiler": {
        "name": "solc",
        "version": "0.8.7+commit.e28d00a7"
    },
    "functionHashes": {
        "fileowner()": "bf15bb97",
        "getOwner()": "893d20e8",
        "transferOwnership(address)": "f2fde38b"
    },
    "gasEstimates": {
        "creation": {
            "codeDepositCost": "59400",
            "executionCost": "24346",
            "totalCost": "83746"
        },
        "external": {
            "fileowner()": "2325",
            "getOwner()": "2286",
            "transferOwnership(address)": "26698"
        }
    }
}