{
    "contractName": "StorefileHash",
    "abi": [
        {
            "anonymous": false,
            "inputs": [
                {
                    "indexed": false,
                    "internalType": "string",
                    "name": "Artist",
                    "type": "string"
                },
                {
                    "indexed": false,
                    "internalType": "string",
                    "name": "Createdtime",
                    "type": "string"
                },
                {
                    "indexed": false,
                    "internalType": "string",
                    "name": "Type",
                    "type": "string"
                },
                {
                    "indexed": false,
                    "internalType": "string",
                    "name": "Description",
                    "type": "string"
                },
                {
                    "indexed": false,
                    "internalType": "uint256",
                    "name": "timestamp",
                    "type": "uint256"
                }
            ],
            "name": "Copyright",
            "type": "event"
        },
        {
            "anonymous": false,
            "inputs": [
                {
                    "indexed": false,
                    "internalType": "string",
                    "name": "ownername",
                    "type": "string"
                },
                {
                    "indexed": false,
                    "internalType": "string",
                    "name": "filehash",
                    "type": "string"
                },
                {
                    "components": [
                        {
                            "internalType": "string",
                            "name": "filename",
                            "type": "string"
                        },
                        {
                            "internalType": "uint256",
                            "name": "UploadDate",
                            "type": "uint256"
                        },
                        {
                            "internalType": "uint256",
                            "name": "Filesize",
                            "type": "uint256"
                        }
                    ],
                    "indexed": false,
                    "internalType": "struct StorefileHash.File",
                    "name": "file",
                    "type": "tuple"
                }
            ],
            "name": "FileUpload",
            "type": "event"
        },
        {
            "inputs": [
                {
                    "internalType": "string",
                    "name": "filehash",
                    "type": "string"
                }
            ],
            "name": "Exsistcheck",
            "outputs": [
                {
                    "internalType": "bool",
                    "name": "",
                    "type": "bool"
                }
            ],
            "stateMutability": "view",
            "type": "function"
        },
        {
            "inputs": [
                {
                    "internalType": "string",
                    "name": "_Artist",
                    "type": "string"
                },
                {
                    "internalType": "string",
                    "name": "_Createdtime",
                    "type": "string"
                },
                {
                    "internalType": "string",
                    "name": "_Type",
                    "type": "string"
                },
                {
                    "internalType": "string",
                    "name": "_Description",
                    "type": "string"
                },
                {
                    "internalType": "uint256",
                    "name": "timestamp",
                    "type": "uint256"
                }
            ],
            "name": "addCopyright",
            "outputs": [],
            "stateMutability": "nonpayable",
            "type": "function"
        },
        {
            "inputs": [
                {
                    "internalType": "uint256",
                    "name": "",
                    "type": "uint256"
                }
            ],
            "name": "copyright",
            "outputs": [
                {
                    "internalType": "string",
                    "name": "Artist",
                    "type": "string"
                },
                {
                    "internalType": "string",
                    "name": "Createdtime",
                    "type": "string"
                },
                {
                    "internalType": "string",
                    "name": "Type",
                    "type": "string"
                },
                {
                    "internalType": "string",
                    "name": "Description",
                    "type": "string"
                },
                {
                    "internalType": "uint256",
                    "name": "timestamp",
                    "type": "uint256"
                }
            ],
            "stateMutability": "view",
            "type": "function"
        },
        {
            "inputs": [],
            "name": "fileowner",
            "outputs": [
                {
                    "internalType": "address",
                    "name": "",
                    "type": "address"
                }
            ],
            "stateMutability": "view",
            "type": "function"
        },
        {
            "inputs": [
                {
                    "internalType": "string",
                    "name": "_ownername",
                    "type": "string"
                },
                {
                    "internalType": "string",
                    "name": "_filehash",
                    "type": "string"
                },
                {
                    "internalType": "string",
                    "name": "_filename",
                    "type": "string"
                },
                {
                    "internalType": "uint256",
                    "name": "_filesize",
                    "type": "uint256"
                }
            ],
            "name": "fileupload",
            "outputs": [],
            "stateMutability": "nonpayable",
            "type": "function"
        },
        {
            "inputs": [
                {
                    "internalType": "uint256",
                    "name": "_idx",
                    "type": "uint256"
                }
            ],
            "name": "getCopyright",
            "outputs": [
                {
                    "internalType": "string",
                    "name": "",
                    "type": "string"
                },
                {
                    "internalType": "string",
                    "name": "",
                    "type": "string"
                },
                {
                    "internalType": "string",
                    "name": "",
                    "type": "string"
                },
                {
                    "internalType": "string",
                    "name": "",
                    "type": "string"
                },
                {
                    "internalType": "address",
                    "name": "",
                    "type": "address"
                }
            ],
            "stateMutability": "view",
            "type": "function"
        },
        {
            "inputs": [],
            "name": "getOwner",
            "outputs": [
                {
                    "internalType": "address",
                    "name": "",
                    "type": "address"
                }
            ],
            "stateMutability": "view",
            "type": "function"
        },
        {
            "inputs": [
                {
                    "internalType": "uint256",
                    "name": "id",
                    "type": "uint256"
                }
            ],
            "name": "getOwnerName",
            "outputs": [
                {
                    "internalType": "string",
                    "name": "",
                    "type": "string"
                }
            ],
            "stateMutability": "view",
            "type": "function"
        },
        {
            "inputs": [
                {
                    "internalType": "string",
                    "name": "filehash",
                    "type": "string"
                }
            ],
            "name": "getfileinfo",
            "outputs": [
                {
                    "internalType": "string",
                    "name": "",
                    "type": "string"
                },
                {
                    "internalType": "uint256",
                    "name": "",
                    "type": "uint256"
                },
                {
                    "internalType": "uint256",
                    "name": "",
                    "type": "uint256"
                }
            ],
            "stateMutability": "view",
            "type": "function"
        },
        {
            "inputs": [],
            "name": "initalized",
            "outputs": [],
            "stateMutability": "nonpayable",
            "type": "function"
        },
        {
            "inputs": [],
            "name": "ownerID",
            "outputs": [
                {
                    "internalType": "uint256",
                    "name": "",
                    "type": "uint256"
                }
            ],
            "stateMutability": "view",
            "type": "function"
        },
        {
            "inputs": [
                {
                    "internalType": "uint256",
                    "name": "",
                    "type": "uint256"
                }
            ],
            "name": "owners",
            "outputs": [
                {
                    "internalType": "string",
                    "name": "",
                    "type": "string"
                }
            ],
            "stateMutability": "view",
            "type": "function"
        },
        {
            "inputs": [
                {
                    "internalType": "address",
                    "name": "newOwner",
                    "type": "address"
                }
            ],
            "name": "transferOwnership",
            "outputs": [],
            "stateMutability": "nonpayable",
            "type": "function"
        }
    ],
    "bytecode": "6080604052600060055534801561001557600080fd5b50600080546001600160a01b0319163317905561126d806100376000396000f3fe608060405234801561001057600080fd5b50600436106100cf5760003560e01c8063893d20e81161008c578063d924100e11610066578063d924100e146101d0578063e088be20146101e7578063e9dc92f9146101fa578063f2fde38b1461021e57600080fd5b8063893d20e8146101765780638a33c8a21461019b578063bf15bb97146101bd57600080fd5b8063025e7c27146100d45780631852ca4b146100fd5780635be1a091146101125780635db68bf81461011c5780636f4eaff11461013f5780638230c4fb14610163575b600080fd5b6100e76100e2366004610fb1565b610231565b6040516100f49190611012565b60405180910390f35b61011061010b366004610e6c565b6102dd565b005b6101106000600655565b61012f61012a366004610e2f565b61040b565b60405190151581526020016100f4565b61015261014d366004610fb1565b61045d565b6040516100f4959493929190611025565b6100e7610171366004610fb1565b61074c565b6000546001600160a01b03165b6040516001600160a01b0390911681526020016100f4565b6101ae6101a9366004610e2f565b610813565b6040516100f493929190611152565b600054610183906001600160a01b031681565b6101d960055481565b6040519081526020016100f4565b6101106101f5366004610f21565b61092c565b61020d610208366004610fb1565b610a3a565b6040516100f495949392919061108d565b61011061022c366004610dff565b610ca0565b6003818154811061024157600080fd5b90600052602060002001600091509050805461025c906111a7565b80601f0160208091040260200160405190810160405280929190818152602001828054610288906111a7565b80156102d55780601f106102aa576101008083540402835291602001916102d5565b820191906000526020600020905b8154815290600101906020018083116102b857829003601f168201915b505050505081565b6040805160a081018252868152602080820187905291810185905260608101849052608081018390526004805460018101825560009190915281518051929360059092027f8a35acfbc15ff81a39ae7d344fd709f28e8600b4aa8c65c6b64bfe7fe36bd19b01926103519284920190610cd9565b50602082810151805161036a9260018501920190610cd9565b5060408201518051610386916002840191602090910190610cd9565b50606082015180516103a2916003840191602090910190610cd9565b5060809190910151600490910155600680549060006103c0836111e2565b91905055507f0a073f8f9f61340d1552b3bfcd179ed59bad190195c10c44f5e5bd53a74c68ea85858585856040516103fc95949392919061108d565b60405180910390a15050505050565b600080546001600160a01b0316331461042357600080fd5b60006001836040516104359190610ff6565b908152602001604051809103902060020154111561045557506001919050565b506000919050565b6060806060806000600486815481106104785761047861120b565b90600052602060002090600502016000016004878154811061049c5761049c61120b565b9060005260206000209060050201600101600488815481106104c0576104c061120b565b9060005260206000209060050201600201600489815481106104e4576104e461120b565b906000526020600020906005020160030160008054906101000a90046001600160a01b0316848054610515906111a7565b80601f0160208091040260200160405190810160405280929190818152602001828054610541906111a7565b801561058e5780601f106105635761010080835404028352916020019161058e565b820191906000526020600020905b81548152906001019060200180831161057157829003601f168201915b505050505094508380546105a1906111a7565b80601f01602080910402602001604051908101604052809291908181526020018280546105cd906111a7565b801561061a5780601f106105ef5761010080835404028352916020019161061a565b820191906000526020600020905b8154815290600101906020018083116105fd57829003601f168201915b5050505050935082805461062d906111a7565b80601f0160208091040260200160405190810160405280929190818152602001828054610659906111a7565b80156106a65780601f1061067b576101008083540402835291602001916106a6565b820191906000526020600020905b81548152906001019060200180831161068957829003601f168201915b505050505092508180546106b9906111a7565b80601f01602080910402602001604051908101604052809291908181526020018280546106e5906111a7565b80156107325780601f1061070757610100808354040283529160200191610732565b820191906000526020600020905b81548152906001019060200180831161071557829003601f168201915b505050505091509450945094509450945091939590929450565b6000546060906001600160a01b0316331461076657600080fd5b600382815481106107795761077961120b565b90600052602060002001805461078e906111a7565b80601f01602080910402602001604051908101604052809291908181526020018280546107ba906111a7565b80156108075780601f106107dc57610100808354040283529160200191610807565b820191906000526020600020905b8154815290600101906020018083116107ea57829003601f168201915b50505050509050919050565b600080546060919081906001600160a01b0316331461083157600080fd5b6001846040516108419190610ff6565b9081526040519081900360200181209060019061085f908790610ff6565b9081526020016040518091039020600101546001866040516108819190610ff6565b90815260200160405180910390206002015482805461089f906111a7565b80601f01602080910402602001604051908101604052809291908181526020018280546108cb906111a7565b80156109185780601f106108ed57610100808354040283529160200191610918565b820191906000526020600020905b8154815290600101906020018083116108fb57829003601f168201915b505050505092509250925092509193909250565b6000546001600160a01b0316331461094357600080fd5b60058054906000610953836111e2565b909155505060038054600181018255600091909152845161099b917fc2575a0e9e593c00f959f8c92f12db2869c3395a3b0502d05e2516446f71f85b01906020870190610cd9565b5060408051606081018252838152426020820152808201839052905181906001906109c7908790610ff6565b908152602001604051809103902060008201518160000190805190602001906109f1929190610cd9565b5060208201516001820155604091820151600290910155517fd04715535882f8ed701ef40347510435209f41ecf04fd62bd43b4b00fb7e4744906103fc908790879085906110ed565b60048181548110610a4a57600080fd5b9060005260206000209060050201600091509050806000018054610a6d906111a7565b80601f0160208091040260200160405190810160405280929190818152602001828054610a99906111a7565b8015610ae65780601f10610abb57610100808354040283529160200191610ae6565b820191906000526020600020905b815481529060010190602001808311610ac957829003601f168201915b505050505090806001018054610afb906111a7565b80601f0160208091040260200160405190810160405280929190818152602001828054610b27906111a7565b8015610b745780601f10610b4957610100808354040283529160200191610b74565b820191906000526020600020905b815481529060010190602001808311610b5757829003601f168201915b505050505090806002018054610b89906111a7565b80601f0160208091040260200160405190810160405280929190818152602001828054610bb5906111a7565b8015610c025780601f10610bd757610100808354040283529160200191610c02565b820191906000526020600020905b815481529060010190602001808311610be557829003601f168201915b505050505090806003018054610c17906111a7565b80601f0160208091040260200160405190810160405280929190818152602001828054610c43906111a7565b8015610c905780601f10610c6557610100808354040283529160200191610c90565b820191906000526020600020905b815481529060010190602001808311610c7357829003601f168201915b5050505050908060040154905085565b6000546001600160a01b03163314610cb757600080fd5b600080546001600160a01b0319166001600160a01b0392909216919091179055565b828054610ce5906111a7565b90600052602060002090601f016020900481019282610d075760008555610d4d565b82601f10610d2057805160ff1916838001178555610d4d565b82800160010185558215610d4d579182015b82811115610d4d578251825591602001919060010190610d32565b50610d59929150610d5d565b5090565b5b80821115610d595760008155600101610d5e565b600082601f830112610d8357600080fd5b813567ffffffffffffffff80821115610d9e57610d9e611221565b604051601f8301601f19908116603f01168101908282118183101715610dc657610dc6611221565b81604052838152866020858801011115610ddf57600080fd5b836020870160208301376000602085830101528094505050505092915050565b600060208284031215610e1157600080fd5b81356001600160a01b0381168114610e2857600080fd5b9392505050565b600060208284031215610e4157600080fd5b813567ffffffffffffffff811115610e5857600080fd5b610e6484828501610d72565b949350505050565b600080600080600060a08688031215610e8457600080fd5b853567ffffffffffffffff80821115610e9c57600080fd5b610ea889838a01610d72565b96506020880135915080821115610ebe57600080fd5b610eca89838a01610d72565b95506040880135915080821115610ee057600080fd5b610eec89838a01610d72565b94506060880135915080821115610f0257600080fd5b50610f0f88828901610d72565b95989497509295608001359392505050565b60008060008060808587031215610f3757600080fd5b843567ffffffffffffffff80821115610f4f57600080fd5b610f5b88838901610d72565b95506020870135915080821115610f7157600080fd5b610f7d88838901610d72565b94506040870135915080821115610f9357600080fd5b50610fa087828801610d72565b949793965093946060013593505050565b600060208284031215610fc357600080fd5b5035919050565b60008151808452610fe2816020860160208601611177565b601f01601f19169290920160200192915050565b60008251611008818460208701611177565b9190910192915050565b602081526000610e286020830184610fca565b60a08152600061103860a0830188610fca565b828103602084015261104a8188610fca565b9050828103604084015261105e8187610fca565b905082810360608401526110728186610fca565b91505060018060a01b03831660808301529695505050505050565b60a0815260006110a060a0830188610fca565b82810360208401526110b28188610fca565b905082810360408401526110c68187610fca565b905082810360608401526110da8186610fca565b9150508260808301529695505050505050565b6060815260006111006060830186610fca565b82810360208401526111128186610fca565b9050828103604084015283516060825261112f6060830182610fca565b905060208501516020830152604085015160408301528092505050949350505050565b6060815260006111656060830186610fca565b60208301949094525060400152919050565b60005b8381101561119257818101518382015260200161117a565b838111156111a1576000848401525b50505050565b600181811c908216806111bb57607f821691505b602082108114156111dc57634e487b7160e01b600052602260045260246000fd5b50919050565b600060001982141561120457634e487b7160e01b600052601160045260246000fd5b5060010190565b634e487b7160e01b600052603260045260246000fd5b634e487b7160e01b600052604160045260246000fdfea2646970667358221220d7e5a35fc0ecd48c709ebf22e997b67e00ba065e7998522c5223d34bfb0fffec64736f6c63430008070033",
    "sourcePath": "/home/kwak/Downloads/final_year/smartcontract.sol",
    "compiler": {
        "name": "solc",
        "version": "0.8.7+commit.e28d00a7"
    },
    "functionHashes": {
        "Exsistcheck(string)": "5db68bf8",
        "addCopyright(string,string,string,string,uint256)": "1852ca4b",
        "copyright(uint256)": "e9dc92f9",
        "fileowner()": "bf15bb97",
        "fileupload(string,string,string,uint256)": "e088be20",
        "getCopyright(uint256)": "6f4eaff1",
        "getOwner()": "893d20e8",
        "getOwnerName(uint256)": "8230c4fb",
        "getfileinfo(string)": "8a33c8a2",
        "initalized()": "5be1a091",
        "ownerID()": "d924100e",
        "owners(uint256)": "025e7c27",
        "transferOwnership(address)": "f2fde38b"
    },
    "gasEstimates": {
        "creation": {
            "codeDepositCost": "943400",
            "executionCost": "30222",
            "totalCost": "973622"
        },
        "external": {
            "Exsistcheck(string)": "infinite",
            "addCopyright(string,string,string,string,uint256)": "infinite",
            "copyright(uint256)": "infinite",
            "fileowner()": "2404",
            "fileupload(string,string,string,uint256)": "infinite",
            "getCopyright(uint256)": "infinite",
            "getOwner()": "2343",
            "getOwnerName(uint256)": "infinite",
            "getfileinfo(string)": "infinite",
            "initalized()": "5183",
            "ownerID()": "2317",
            "owners(uint256)": "infinite",
            "transferOwnership(address)": "26764"
        }
    }
}